:020000020000FC
:1000000000C00FED0DBFBB98BC9800000000C39A64
:10001000C49A00000000002716B313FF016014FF0C
:100020000260502F969A8E98959A8D980027902F5F
:10003000302E502E38EC03E8F4D03A95E1F7CDD1CC
:10004000E2D072E010D220F0002311F073E000C083
:10005000503011F0852F18C0E3E0B0D020F0003010
:1000600011F0802F01C0872FE0E0A8D008F0F0D178
:10007000E1E0A4D008F0D0D1E2E0A0D028F0013037
:1000800011F0D3D101C0D4D16624E4E097D008F0B8
:10009000602E14D2BBD10FEF302EADD08B98FDD196
:1000A00010F0ADD04BD222D230F41CD2033519F46B
:1000B0000FE414D201D0F1CF9FEF0027302EA9D149
:1000C00011D20135B1F0023509F42CC0033409F422
:1000D00032C0033509F43DC0073411F444C039C0BF
:1000E0000D3409F419C0023409F408C005E4F6D14E
:1000F000E7CF8CD10FEF302E90E00895F3D1602E32
:10010000E4E055D00FE4EAD15D9BFECF03E889D04F
:1001100003E887D0D3D1EDCFE5D1E3E048D0889490
:100120003ED0CECFDFD10F9377D10F9110F0E1E029
:100130003ED035D0C5CFD6D10F93013011F006EEA9
:1001400001C007EE3FD10F9110F0E2E030D027D090
:10015000B7CFC8D1000F0F937BD10F9110F0E0E023
:1001600026D01DD0ADCF67D178F00FE4B7D10D2DDB
:100170000ED00E2D0CD00F2D0AD0082FAFD1052F89
:10018000ADD1062DABD19CCF05E4A8D199CF0F936B
:1001900002950F70A3D10F910F70A0D108950F9306
:1001A00010F405E408F00FE499D10F9108950F932E
:1001B00016D0B09601E013D00F910895EF93B0964A
:1001C00008D0EF91013019F404D088940895089470
:1001D0000895E199FECFEEBBE09A0DB308950F9319
:1001E000E199FECFEEBB0DBB0FB7F894E29AE19A0E
:1001F0000FBF0F910895B99A0000C19A0895B99A56
:100200000000C1980895BA9A0000C29808953A95DE
:100210000000000000000000000000000000B9F72E
:1002200008952F9329EC2A95F1F70A95D9F72F9184
:10023000089531FE11C08B980000000000B30870D3
:1002400019F4552009F062D1502E88945F990894D2
:1002500028F01BD081F302C018D0F1F3089531FECD
:1002600011C08B980000000000B3087019F45520ED
:1002700009F04CD1502E88945F99089428F005D04D
:1002800081F702C002D0F1F708958E9800000000B7
:1002900000B3007408958D980000000000B3007250
:1002A00008951F932F933F934F9341E028E0102F21
:1002B00079D0402F959A8D98969A8E9830E5A7DF41
:1002C00096988E9A30E5A3DF95988D9A38E09FDF57
:1002D000969A8E98C4DF012F017019F495988D9A23
:1002E00002C0959A8D98A5DF16952A9599F7B7DFE4
:1002F000042F017019F495988D9A02C0959A8D98E3
:1003000098DFADDF959A8D9838E281DFA8DF10E0A5
:1003100010668D988E9800B301230117E1F7969827
:100320008E9A4F913F912F911F9108951F932F9374
:100330003F934F9310E041E028E0969A8E98959A6B
:100340008D9838E264DF8BDF08F425C0302F71DF31
:10035000332311F008941FC082DF9DDF002309F0D2
:10036000142B440F66DF2A95B9F779DF94DF30E06C
:1003700005FD33955EDF73DF8EDF402F5ADF4423A8
:1003800011F4089408C0012F0DD0031711F0089440
:1003900002C0012F889496988E9A4F913F912F9189
:1003A0001F9108951F93102F02950127102F069576
:1003B00006950127102F06950127017011E00127EE
:1003C0001F9108956EDF38E222DFB0DF20F00A3F90
:1003D00011F4889408F4089408950FEF62DFA6DF03
:1003E00098F0A4DF88F00A3A79F4A0DF68F00AEE0A
:1003F00058DF9CDF48F00A3F39F40027C02ED02E8A
:10040000E02EF02E889408950894089504EFDADF22
:10041000089505EFD7DF08951F93102F08EED2DF60
:1004200010F0012FCFDF1F91089506EECBDF089566
:1004300007EEC8DF089509EEC5DF48F077DF38F032
:10044000D02E74DF20F0E02E71DF08F0F02E08953A
:100450001F932F93102F03EFB5DF10F0012FB2DFA2
:100460002F911F9108952F9323E0E8EBF4E005917D
:10047000EFDF80F02A95D9F702EFA4DF58F038E2D9
:10048000C6DE54DF38F00F9304E6E2DF0F912F91C0
:10049000889408952F910894089548DF60F0C02E45
:1004A00045DFD02E43DF0195E02EFF24733011F499
:1004B0003DDFF02E88940895C864500060FC05C0AC
:1004C00001E002B900EA09B904C000E002B909E19B
:1004D00009B904E003B9539A549A08955D9BFECF7D
:1004E0000CB908955F9BFECF0CB1089588945F9975
:1004F000089408958B9800000000000000000000A0
:1005000000000000000000B3087008950F932F93BF
:10051000833019F4E6E9F5E007C0823019F4E6E823
:10052000F5E002C0E2E8F5E025915D9BFECF059184
:10053000D5DF2A95D1F72F910F91089500E4C0FCE3
:100540000062C1FC0061E7FC0860E6FC0460D7FCC7
:100550000260D6FC0160C2DF0D2D0F73BFDF0E2DD0
:100560000F73BCDF833039F0823051F4C2FE08C013
:1005700000E2B4DF05C00F2D0F70C2FC0061AEDFDA
:100580000895014D00000D4D330801242C27291832
:10059000101011090000524D5A40000000080124BB
:1005A0002D3328101010113C1010101410121010C0
:1005B0003C2D2F3533253C302E30102610213C2D7C
:1005C0002923322F332F263400292E34252C2C2991
:1005D0002D2F353325000D0033253229212C0036EF
:0A05E000253233292F2E15160900CD
:00000001FF
