:020000020000FC
:100000000FED0DBF75D07AD000E0902F302E502E1E
:1000100034E603E865D003E863D03A95D1F7F0D130
:1000200008F432C04ED070E09AD200E0B02E02D276
:100030000FEF302E37D08B9884D2A0F07AD2DD200B
:1000400059F4EE2049F4CC2039F4BB2029F4713066
:1000500039F4FF2009F404C009D020F028D0B6D22A
:10006000BC2CAF2C8DD208F487D2E4CF0C2D0730F6
:1000700049F412D238F0082D039502FD00E0E4D1D6
:100080000894089588940895B99AC19A2EE103E8D6
:1000900027D02A95E1F7C1982EE103E821D02A95CF
:1000A000E1F7F2CFB99A00000000C19A0895B99A19
:1000B00000000000C1980895BA9A00000000C29A9A
:1000C0000895BA9A00000000C29808953A95000079
:1000D000000000000000000000000000B9F70895D3
:1000E0002F9329EC2A95F1F70A95D9F72F910895C6
:1000F000969A8E98089596988E9A0895959A8D98C6
:10010000089595988D9A08958E980000000000B388
:10011000007408958D980000000000B300720895E7
:100120001F932F933F934F9341E028E0102F58D116
:10013000402F959A8D98969A8E9830E5C7DF9698BD
:100140008E9A30E5C3DF95988D9A38E0BFDF969A96
:100150008E9831FE0DC08B980000000000B308702F
:1001600019F4552009F01CD2502ECEDFA1F702C0A1
:10017000CBDFF1F7012F017019F495988D9A02C029
:10018000959A8D9831FE0DC08B980000000000B349
:10019000087019F4552009F003D2502EB5DFA1F3F1
:1001A00002C0B2DFF1F316952A9599F631FE0DC023
:1001B0008B980000000000B3087019F4552009F076
:1001C000EFD1502EA1DFA1F702C09EDFF1F7042F7F
:1001D000017019F495988D9A02C0959A8D9831FE08
:1001E0000DC08B980000000000B3087019F4552072
:1001F00009F0D6D1502E88DFA1F302C085DFF1F3DC
:1002000031FE0DC08B980000000000B3087019F497
:10021000552009F0C5D1502E77DFA1F702C074DF59
:10022000F1F7959A8D9838E251DF31FE0DC08B9829
:100230000000000000B3087019F4552009F0B0D197
:10024000502E62DFA1F702C05FDFF1F710E010620D
:1002500010648D988E9800B301230117E1F79698EA
:100260008E9A4F913F912F911F9108951F932F9335
:100270003F934F9310E041E028E0969A8E98959A2C
:100280008D9838E223DF31FE0DC08B98000000000E
:1002900000B3087019F4552009F082D1502E34DFD4
:1002A000A1F702C031DFF1F7302F31FE0DC08B987E
:1002B0000000000000B3087019F4552009F070D157
:1002C000502E22DFA1F302C01FDFF1F3332311F020
:1002D00008947FC031FE0DC08B980000000000B371
:1002E000087019F4552009F05BD1502E0DDFA1F7ED
:1002F00002C00ADFF1F70EDF002309F0142B440FD0
:1003000031FE0DC08B980000000000B3087019F496
:10031000552009F045D1502EF7DEA1F302C0F4DEDE
:10032000F1F32A95B9F631FE0DC08B98000000005C
:1003300000B3087019F4552009F032D1502EE4DED4
:10034000A1F702C0E1DEF1F7E5DE30E005FD33950F
:1003500031FE0DC08B980000000000B3087019F446
:10036000552009F01DD1502ECFDEA1F302C0CCDE06
:10037000F1F331FE0DC08B980000000000B308704F
:1003800019F4552009F00CD1502EBEDEA1F702C0A1
:10039000BBDEF1F7BFDE402F31FE0DC08B980000B1
:1003A000000000B3087019F4552009F0F9D0502E60
:1003B000ABDEA1F302C0A8DEF1F3442311F40894EC
:1003C00008C0012F0DD0031711F0089402C0012FAF
:1003D000889496988E9A4F913F912F911F910895EE
:1003E0001F93102F02950127102F069506950127C0
:1003F000102F06950127017011E001271F91089524
:100400000FEF8EDE33DFA0F031DF90F00A3A81F497
:100410002DDF70F00AEE84DE29DF50F00A3F41F450
:1004200000E0C02ED02EE02EF02EB02E889408953D
:100430000894089504EF74DE19DF20F00A3F11F4E8
:1004400088940895089408951F93102F08EE68DE8D
:100450000DDF58F00A3F49F4012F62DE07DF28F074
:100460000A3F19F488941F91089508941F910895E4
:1004700006EE56DEFBDE20F00A3F11F48894089564
:100480000894089507EE4CDEF1DE20F00A3F11F4E7
:10049000889408950894089509EE42DEE7DE68F036
:1004A0000A3F59F4E3DE48F0702EE0DE30F0802E93
:1004B000DDDE18F0902E88940895089408951F9317
:1004C0002F93102F03EF2CDE38E200DECFDE70F02A
:1004D0000A3F61F4012F24DE38E2F8DDC7DE30F098
:1004E0000A3F21F488942F911F91089508942F9129
:1004F0001F9108952F9323E0EAE5F5E00591DFDFF2
:10050000A8F02A95D9F702EF0BDE38E2DFDDAEDE88
:1005100068F00A3F59F438E2D9DDA8DE38F00F93CD
:1005200004E6CDDF0F912F91889408952F910894C0
:100530000895E92CE194D82C072D0770C02E08955A
:10054000089594DE702E92DE802E90DE902E713013
:1005500011F48CDEF02E88940895C864500001E0F8
:1005600002B900EA09B904E003B9539A549A08950C
:100570005D9BFECF0CB908955F9BFECF0CB1089533
:1005800088945F99089408958B98000000000000FB
:100590000000000000000000000000B30870089593
:1005A0000F932F93713019F0E6E1F6E002C0EAE113
:1005B000F6E02591291B5D9B06C00591D9DF939537
:1005C0002A95C9F790E02F910F91089500E4C0FC9F
:1005D0000062C1FC0061E7FC0860E6FC0460D7FC37
:1005E0000260D6FC0160502FC3DF0D2D0F73602F0A
:1005F000BFDF0E2D0F73802FBBDF713031F0C2FED5
:1006000009C000E2202EB4DF05C00F2D0F70C2FE1E
:100610000061AEDF0895024D3300064D5A400000E0
:020620000000D8
:00000001FF
